:100000006F10404A130000001300000013000000AE
:100010001300000013000000130000001300000094
:100020001300000013000000130000001300000084
:08003000130000007300100032
:100038006FF09FFC000000006F00801A6F00801AAC
:1000480000000000000000000000000000000000A8
:100058000000000000000000000000000000000098
:100068006FF09FF9000000006FF01FF9000000001A
:100078006FF09FF86FF05FF86FF01FF86FF0DFF721
:100088006FF09FF76FF05FF76FF01FF76FF0DFF615
:100098006FF09FF66FF05FF66FF01FF66FF0DFF509
:1000A8006FF09FF56FF05FF56FF01FF56FF0DFF4FD
:1000B8006FF09FF46FF05FF46FF01FF40000000022
:1000C8000000000000000000000000006FF0DFF2F8
:1000D8006FF09FF26FF05FF26FF01FF26FF0DFF1D9
:1000E8006FF09FF16FF05FF16FF01FF16FF0DFF0CD
:1000F8006FF09FF06FF05FF06FF01FF06FF0DFEFC1
:100108006FF09FEF6FF05FEF6FF01FEF6FF0DFEEB4
:100118006FF09FEE6FF05FEE6FF01FEE6F00906173
:1001280000000000000000000000000000000000C7
:080138000000000000000000BF
:100140003D432A876373C3029377F700BDEFADE5A4
:10015000937606FF3D8ABA960CC34CC30CC74CC7B6
:100160004107E36BD7FE11E28280B306C3408A06E3
:100170009702000096966780A6002307B700A306A3
:10018000B7002306B700A305B7002305B700A304F3
:10019000B7002304B700A303B7002303B700A302EB
:1001A000B7002302B700A301B7002301B700A300E3
:1001B000B7002300B700828093F5F50F9396850072
:1001C000D58D93960501D58D61B79396270097023B
:1001D000000096968682E78086FA9680C1171D8F6A
:1001E0003E96E374C3F8A5B77300203001A0011157
:1001F0008545114506CE02C202C402C6EF10E04E8C
:1002000089472312F10037150140C1473EC64C0013
:100210008D47130505803EC4EF106030F240056144
:100220008280894519C537150140130505806F1077
:10023000C03B37150140130505806F10403B41114D
:1002400022C43714014089451305048006C6EF1007
:100250002039854789456319F50013050480224438
:10026000B24041016F10A038130504802244B2400F
:1002700041016F108037011152C422CC13840186D2
:100280008347F40026CA4AC84EC606CE794763841F
:10029000E70C636EF7060D47638BE71A6360F7049C
:1002A000DDCB1547238EE1BE930630021307000213
:1002B0006384D700130740028547238CF1B683C7B8
:1002C00091822380E1C8373702406387071C834748
:1002D000674393E73700230BF74265A849476381DB
:1002E000E7086947E39FE7FA373500001305C52E95
:1002F000EF10100F83A6018A31476374D70023A043
:10030000E18A8D679387875423A4F18AADA81307E8
:100310008002638CE70E6368F70213075002E392D2
:10032000E7F883A6018A21476374D70023A0E18AF6
:1003300037350000938701811305C52D23A4F18A69
:10034000EF10100A89A01307A002638CE7041307BB
:10035000B003E398E7F423840182A384018225A0FB
:100360003735000013054526EF1090078D679387FA
:1003700007D923A4F18A83A6018A13074002637474
:10038000D70023A0E18A238C01B6238E01BE2380EF
:1003900001C8F2406244D2444249B249224A05614E
:1003A000828083576401034614013735000093951A
:1003B0008700A183DD8D834724016206C205C20741
:1003C0005D8E83474401C181A6055D8E834734015C
:1003D000A2075D8E1305052723A0B18A23A8C1AA11
:1003E000EF10606E03A701AB9307301263FBE700C9
:1003F00083A6018A23ACD1829387C1839843369721
:1004000098C305472386E182BDBF83576401034635
:1004100014013735000093958700A183DD8DC20557
:10042000C181A60523A0B18A834724016206130572
:10043000052AC2075D8E834744015D8E83473401E0
:10044000A2075D8E23A8C1AAEF10E0675DBF373514
:1004500000001305052DEF10A078930700072390E7
:10046000F18683C7C1BFA301040023240400230134
:10047000F400B707000A5CC083C701C8A3060400E4
:10048000231704002306F40023A4818A2318040000
:1004900083A6018A4947E5B58347674393E7C700C9
:1004A0001DBD23850182A3840182B75642539386E2
:1004B000563523A0D1869387018603C6418A938649
:1004C000418A2382C70003C6160023A4F18AA382AF
:1004D000C70003C6260083C636002383C700A38354
:1004E000D7009386018A83D6260013968600A182C0
:1004F000D18E2394D70083D6018A13968600A182D9
:10050000D18E2395D70083C681B71306D0042386E6
:10051000D70093060004BA8703A7818A83450700A2
:1005200003A741D236972300B70003A7818A850627
:10053000050723A4E18AE391C6FEB7370240354799
:10054000238AE74203C767431377C70F238BE7422A
:10055000828083C6018613075005639DE608938752
:10056000018683C61700130730056395E60883C626
:10057000270013072004639FE60683C6370013078E
:1005800030046399E60603D787009385018A131622
:1005900087002183518F2391E50003D7A70013160D
:1005A00087002183518F03C647002390E18A23826D
:1005B000C18A03C657001387418AA300C70003C638
:1005C00067002301C70003C67700A301C70003A784
:1005D000018A19CB83C7C70013C707081D8323846B
:1005E000E1829D83A384F18205472385E1822386EE
:1005F000018251B1373702408347674393E73700A1
:10060000230BF742828003C7C182411126C206C66E
:1006100022C483A6018A81441DC393F7F61F0147B4
:1006200099EF83A701ABBA85C9E70D67130747DBCD
:1006300023A4E18A81440147850723A8F1AA9307EF
:10064000000463F4D70A938606FC23A0D18A13041E
:100650000004814713F6F70F6360860A01CF03A5F4
:1006600041D28D65130600049385452213050504C8
:10067000EF10003A85C083C74183D9EF03A541D26B
:10068000B735000013062003938545D313050504F1
:10069000EF100038B7370240238A874203C7674309
:1006A0001377C70F238BE742B240224492444101A3
:1006B000828009476386E700130710086396E70006
:1006C0000D67130747FBADB7130500100547E3851A
:1006D000A7F6130710126388E7000D671307C72FEB
:1006E00023A4E18A89BF8544B9B713F4F60F23A088
:1006F000018AA3840182B1BF03A6818A0345060053
:1007000003A641D23E962300A60403A6818A85074C
:10071000050623A4C18A3DBF0547639AE700B735A4
:10072000000003A541D25546938585D685B7094774
:10073000E392E7F6B735000003A541D23D46938525
:1007400005D8A9B70111B737024006CE22CC26CA78
:100750004AC84EC652C456C203C9874083C7C18225
:100760001379F90F638D071003A701AB93073012BC
:1007700063F7E710E934B709002003C70907854785
:10078000938909079384D1826312F704138A018342
:1007900083270A000564130404FC33F787021DE76E
:1007A00033D58702238009001A053E95EF007015A6
:1007B00003260A0083C5040037350000B3568602BD
:1007C0001305C54F9A06B296EF10E02F83C50400BB
:1007D00083A841D2B70A002013986500814713858A
:1007E000CA11930600043387F80003460700330755
:1007F000F8002A972300C7008507E396D7FE8505F2
:100800003735000093F5F50F130545532380B400E9
:10081000EF10602B03C704009D476316F702138493
:1008200001830C401306001C1385CA11EF007019D8
:100830001C400547238004009387071C1CC02380AD
:10084000E900238AE18203A78183C1676379F70204
:10085000138401830C4083A7C1831307F01B8D8F82
:10086000636FF70083C7040099CB03A541D2130639
:100870000004EF0010151C40938707041CC083A7D9
:10088000018A3389274123A0218B631D090062441B
:10089000F240D2444249B249224A924A2384018218
:1008A000056101B1F2406244D2444249B249224A50
:1008B000924A05618280B737024003C767401377C9
:1008C000F70F937627006383065A011106CE22CCD8
:1008D00026CA4AC84EC652C403C7774093060002D0
:1008E0001377F7036303D74063EAE60285466301A3
:1008F000D748630807468D466308D7509146630979
:10090000D752B737024009472383E740F240624499
:10091000D2444249B249224A05618280930630029C
:10092000630DD74E63E7E602930610026306D74ACB
:1009300093062002E317D7FC238C074203C7A74383
:100940001377C70F13672700238DE742A385018222
:100950004DBF93064002630AD74E93060003E3128D
:10096000D7FA130720FC2389E74283C78740214732
:100970006314F71203A5C1D10347750083476500CF
:1009800022075D8F2396E1AA834715002387F1AAEA
:100990008344050013F6040635CE9306E00F639DED
:1009A000D70E9387818123AAF1AA854763F4E700D4
:1009B0002396F1AA03D6C1AAA14763F3C700214633
:1009C00013190601135909014A8693858181EF1095
:1009D000200403A641AB4A9623AAC1AAE204E184FB
:1009E000814663D2040283D7C1AA930600043E87DE
:1009F00063F4F6001307000442074183998F93764E
:100A0000F70F2396F1AAB73702402388D74213077E
:100A100000FC79A029466361F6080D668A07130673
:100A200086D0B2979C438287834735008346250052
:100A30000946A207D58F93D687006386C6068D45E3
:100A4000638CB60685476393F6088D679387471DC9
:100A500023AAF1AA8149C947C207C18363F4E70009
:100A60002396F1AA03D6C1AA9307000463F4C70032
:100A700013060004131A060183A541AB135A0A0199
:100A80005286EF00F07803A641AB9307F00F529621
:100A900023AAC1AAE394F9F4B73702401307F0FC84
:100AA0002389E742B9BD8D679387471B23AAF1AA23
:100AB0008149930700024DB793F7F70F854563828D
:100AC000B70289CB6387C702638DD7029309F00F02
:100AD000814759B79387C18123AAF1AA81499147D8
:100AE000A5BF8D679387871E23AAF1AA8149A947CD
:100AF000A5B78D679387471F23AAF1AA8149E947C4
:100B0000A1BF8D679387072123AAF1AA8149D14705
:100B1000A1B7834725002396F1AAC9B583C741D061
:100B20002300F50003D7C1AA8547E3F9E7EA854723
:100B3000DDB7034725002382E1D04DB513F7F4015B
:100B400019EB8347350003472500A207D98F0547D6
:100B5000E394E7F461B58947E310F7F48347450070
:100B60008D46638AD70663EEF60085466387D7080D
:100B7000E394E7F2373702408347A74393F73707F9
:100B800095A813072008638FE704130730086389CB
:100B9000E70213071008E391E7F037370240834775
:100BA000674393F7C70B93E72700230BF74283C7ED
:100BB000A182E38507E223850182EFF09F8E39BD94
:100BC000373702408347E74393F7C70B93E7270084
:100BD000230FF74221B5373702408347E74393F7A6
:100BE000370BFDB7373702408347A74393F7C70B4F
:100BF00093E72700230DF742D5B3373702408347E9
:100C0000674393F7370755B713F7F4011DDB89479F
:100C1000E314F7E88347350083462500A207D58F04
:100C2000E39C07E68347550083464500A207D58F1E
:100C30008D466382D70663E0F6028546638FD7064A
:100C4000E39CE7E4373702408347A74393F737072E
:100C500093E7C70045B7130720086387E704130726
:100C600030086381E70213071008E397E7E237379C
:100C700002408347674393F7C70793E73700230B87
:100C8000F742A9BB373702408347E74393F7C707CB
:100C900093E7370035BF373702408347E74393F781
:100CA000370793E7C7002DB7373702408347A7437D
:100CB00093F7C70793E7370035BF373702408347BD
:100CC000674393F7370793E7C70055BF2300050035
:100CD00091BD2300050083A7C1D1A380070003D7DE
:100CE000C1AA8947E3FCE7CE3DB503C7E1AA954613
:100CF000630BD70499466313D70603D4C1AA93079D
:100D0000000463F487001304000403A5C1D1420466
:100D100083A541AB41802286EF00904F83D7C1AAC3
:100D20009379F40F818F2396F1AA83A741AB3E9468
:100D300023AA81AAB73702402388374303C7274332
:100D400013470704B1BB03C7374083C6C1AA137753
:100D50000708558FA381E740094799B323880742C5
:100D6000E5BF2388074203C72743134707080DBB86
:100D700003C7774013770704E30507B883C681826A
:100D80001384818299C27D3AADBE03C78740137731
:100D9000F70FE30807B603A541D293860186814782
:100DA0003306F500834506003386D7008507230008
:100DB000B60013F6F70FE315E6FEEFF08FF983C7E1
:100DC00081B703470400D98FE39D07B283C791829F
:100DD00091CFEFF05F8335B603C791827DFB138718
:100DE000A1828346070091C623000700EFF06FEB56
:100DF00009BE238A074203C767431377C70F1367E8
:100E00002700238BE742F5BC03C77740137707041D
:100E1000E30907AE83C78740EDB4239E074203C7AB
:100E2000E7431377C70F13672700238FE742D1BC2F
:100E300003C7774013770704E30507AC03C72744CC
:100E4000134707082381E744F1B72380074403C70A
:100E50002744134707042381E74403C72744137734
:100E6000C70F136727002381E74461BC93761700FF
:100E700085C6A381074009472389E7424947238B59
:100E8000E742238DE742238FE74203C7674013679A
:100E900017002383E740828093764700FDDA03C77B
:100EA00057401147FDB7411126C2AA84214506C605
:100EB00022C42E84EF007003374702408327078047
:100EC000268593E747002320F780EF00E072A28594
:100ED0002244B2409244056541016F00207F4111D8
:100EE000094506C6EF00E070EF00D02571651305D7
:100EF0000520EF00D027EFF08FAFA920C5260545CC
:100F0000EFF02FB2938781AB23AEF1D09387C1B7B7
:100F100023A2F1D2938701C023AAF1D0938741C8BD
:100F20008545014523ACF1D0BD3FEF009017B7E7F1
:100F300000E03707000823A2E71001A0EFF0BF97F9
:100F400073002030056539718545110506DE22DC08
:100F500026DA4AD84ED63714014002C002C202C473
:100F600002C602C802CA02CC231E0100EF00E077CD
:100F7000C1478D4441498A85130504802310F1003F
:100F80004AC426C2692B13050480C145B92D9307B5
:100F90000002E1498A85130504802310F1004EC444
:100FA00026C2B52B930700042310F1008A859147D0
:100FB000130504803EC4A523930700088A85130502
:100FC00004802310F1004EC426C2912BB707040100
:100FD0003EC6B70702003EC8B707000285073ECAF3
:100FE0006C009D47373501404ACC231EF100EF00CD
:100FF000A071854537350140EF00A076F25062546C
:10100000D2544259B25921618280411122C426C270
:1010100006C6AA841304900C894537350140EF00B9
:10102000E0760DC5A68537350140EF0060751304E5
:10103000900C854537350140EF00407515C13735B7
:101040000140EF0040741375F50F31A07D14137447
:10105000F40F79F00145B24022449244410182806C
:101060007D141374F40F71F4F5B745B71305F00F41
:1010700069BF411106C622C426C24AC037140140C6
:101080004149232A24811305F009C5371305F00FC0
:10109000AD3F931405011305F00F853F2205C98C60
:1010A0001305F00F9D37B240232824812244458D3B
:1010B0000249924441018280411122C426C206C6DF
:1010C00037140140C144232A94801945793FB24026
:1010D000232894802244924441018280411106C613
:1010E00022C426C237140140C144232A94801545E6
:1010F000AD3FAD3FB2402328948022449244410149
:101100008280411106C622C426C24AC0AA8437146E
:1011100001405D374149232A248113050002B1377C
:1011200013D504011375F50F893713D58400137592
:10113000F50F253F13F5F40F0D3F23282481793F48
:10114000058975FDB24022449244024941018280E2
:10115000011132C606CE22CC26CA2E84AA84A93F0B
:10116000B7170140414723AAE7800945FD3D1355C4
:1011700004011375F50FD53D135584001375F50F54
:10118000ED351375F40FD53532469307001063F42F
:10119000C700130600103384C400639F8400B71790
:1011A0000140414723A8E780153F058975FDF240BE
:1011B0006244D24405618280850403C5F4FF75351D
:1011C000E9BF797122D426D24AD04ECE52CC1359DF
:1011D000860006D656CA5AC85EC662C493F7F50F93
:1011E0002A84AE84B289137AF90FB1EFAA8A630612
:1011F0000A02B38BA540130BF00F7D1A137AFA0F76
:10120000B3857A01631A6A031375F90F2205B38552
:10121000A40013F6F90F229521A04E86A6852285FB
:101220002254B25092540259F249624AD24A424B75
:10123000B24B224C456129BF568513060010093F69
:10124000938A0A105DBF3309F0401379F90F6311D7
:101250000A021377F60FE372E9FCBA974A8693F90C
:10126000F70FFD354E86B3059900330524014DBFB8
:10127000B3092641CA944A864A9413DA8900137B3B
:10128000FA0F93FAF90FE9352289338C8440930BD6
:10129000F00F7D1B137BFB0FB3058901631D7B01E1
:1012A0009375FA0FA2053305B400A695638C0A0066
:1012B00013F6F90FB5B74A8513060010513D13090F
:1012C0000910C1BFB250225492540259F249624AE5
:1012D000D24A424BB24B224C45618280411122C41A
:1012E00006C626C279339384018488C08C40373582
:1012F000000013054555EF00007D2385018423A2DE
:101300000184239401849C403747EF0093066701D2
:101310006383D7021384018463EDF602B736EF00CE
:10132000138636016389C700636CF60013871601C4
:10133000C906639DE700B240224492444101828085
:101340005107E38AE7FED506E367F7FEE385D7FE9C
:1013500015A0B766EF0013866601E38EC7FC6368CD
:10136000F60293068701E388D7FCE3E6D7FC65071E
:10137000E383E7FC1840FD576304F7001C40C5FFFA
:101380003735000013054556EF00900501A013877F
:101390008601E382E7FAE3E0E7FAE50645BFB7171F
:1013A00002409843B706FFF841111367170098C32E
:1013B000D84337060200758FD8C39843B706F7FEA7
:1013C000FD16758F98C39843B706FCFFFD16758F01
:1013D00098C3D843B70681FFFD16758FD8C337076A
:1013E0009F0098C702C402C69843C166558F98C330
:1013F000B7160240130700509C42F18F3EC6A24729
:1014000085073EC4B24781E7A247E397E7FEB717D7
:1014100002409C431397E7006354070885473EC684
:1014200032478547631CF706B72702409843B70643
:10143000C1FFFD161367070198C39843719B98C3BA
:1014400098431367270098C3B7170240D843D8C3FF
:10145000D843D8C3D84313670740D8C3D843758F40
:10146000D8C3D843B7061D00558FD8C39843B706D5
:101470000001558F98C3984393166700E3DD06FE7D
:10148000D843B7160240719BD8C3D84313672700CF
:10149000D8C32147DC42B18BE39EE7FE4101828045
:1014A00002C6BDBF97F1FF1F9381C13C17410020C9
:1014B000130141B5172500001305C51697F5FF1F49
:1014C000938545B41386818263FAC50083220500A3
:1014D00023A0550011059105E3EAC5FE138581821D
:1014E0009385C1D26377B500232005001105E36D14
:1014F000B5FE9302800873A0023097F2FFFF93823B
:10150000E2B393E2120073905230EFF05FE997027A
:1015100000009382029D73901234730020309C452A
:1015200013F7070113F8F70001C7D8413368E80043
:1015300083D5050013F7F50F39C318418146854E51
:101540003D4F930F800293028004214E3396DE00BC
:10155000B3F8C500631116039398260033131F01D7
:101560001343F3FF3377E300B318180133E7E800C0
:10157000639FF70550C98506E39AC6FD18C1130796
:10158000F00F6375B70454412146854E3D4F930FCC
:10159000800293028004414EB398CE0033F71501C8
:1015A0006392E8021317260001173313EF00134369
:1015B000F3FFB376D3003317E800D98E639DF701AC
:1015C000232A15010506E319C6FD54C18280E39460
:1015D00057FA10C94DB7E39757FE23281501DDB719
:1015E00048456D8D3335A00082800CC982804CC97E
:1015F000828023A6A184828009C9371702405C43F8
:10160000B7064000D58F5CC38280B7160240DC422B
:101610003707C0FF7D17F98FDCC282803717024081
:101620005C439146B18B6385D700A1466386D7069C
:10163000B7177A00938707201CC1371602405C4217
:1016400037070020130707009183BD8BBA9783C625
:1016500007001C41B3D7D7005CC15442A1829D8AC8
:10166000BA9683C60600B3D6D70014C55442AD82DD
:101670009D8A369703470700B3D7E7005CC55842F9
:1016800039839376370013878180369703470700A5
:10169000B3D7E7021CC982805C435443C983BD8B26
:1016A0001396F60089076349060037173D001307B4
:1016B0000790B387E70249B758439316E700E3C69C
:1016C00006FE37177A0013070720E5B799C53717C5
:1016D00002405C4B5D8D48CB8280B7170240D84BEF
:1016E0001345F5FF798DC8CB828099C53717024025
:1016F0001C4F5D8D08CF8280B7170240984F13456D
:10170000F5FF798D88CF8280035705008D67938719
:10171000070483D625007D8F83D70500D58F83D618
:101720004500D58F83D66500D58F83D68500D58FAC
:1017300083D6A500D58F83D6C500D58F83D6E50087
:10174000D58FD98F2310F5000357C501FD779387F7
:10175000F77FF98F231EF50083D705012318F500C5
:1017600082808357050091C593E707042310F50095
:101770008280C207C18393F7F7FBC207C183FDB71D
:101780002316B50082800355C5008280035585006D
:101790006D8D3335A000828083560501F577FD17E6
:1017A000F58F83D66500397122DC06DED58F03D72D
:1017B000C5002318F5008356C500FD779387379F32
:1017C000F58F83D645002A842EC6D58F83D6850013
:1017D000D58F83D6A500D58F2316F50083574501F5
:1017E000C207C18393F7F7CFD98F231AF500680892
:1017F0003535B747014093870780B245631EF4042F
:10180000A2578356C4006547B387E702C206C18664
:10181000984163D5060406070356C4004206B3D7B1
:10182000E702130740064186B3D6E702B3F7E702A3
:101830009206635706028E0793872703B3D7E70202
:1018400013F77700B367D700C207C1832314F400EE
:10185000F250625421618280925765B70A076DBFCA
:10186000920793872703B3D7E702BD8BD58FE9BFD4
:1018700081C98357C5000967D98F2316F500828077
:101880000357C500F977FD17F98FC5BF93F5F51F0D
:101890002312B5008280035505006D8D3335A000FD
:1018A0008280B7370240238007401307C0FC23869D
:1018B000E740A386E7402387E7403147A387E74017
:1018C00003D7C1D12398E74003D741D2239AE740F9
:1018D00003D741D1239CE74003D781D1239EE74022
:1018E00003D701D12390E74203D701D22392E742E5
:1018F00003D7C1D02394E74203D781D02396E74290
:1019000009472389E742238BE742238DE742238F50
:10191000E7422381E7442383E7442385E744238781
:10192000E7447D572383E7401D472381E740A38198
:101930000740130790022380E740130710F8A380A5
:10194000E7408280B707002083A7470737177A0050
:1019500013070720B3D7E70293F7F70F2389F18422
:101960001307803EB387E7022398F1848280797160
:1019700022D42A8411658545110506D6BD33930707
:1019800000202312F100371501408D473EC44C0062
:10199000E147130505803EC6593622C83744014049
:1019A000B70708000C08130504803ECC02CA231EAA
:1019B0000100DD331305048085455D3DB25022549E
:1019C00045618280011126CAB744014022CC4AC831
:1019D0004EC606CEAE893289014493840480634AA0
:1019E0002401F24062444A85D2444249B249056129
:1019F0008280930500042685793D65DDB3878900E3
:101A00008385070026850504C205C1814135C1BF14
:101A1000B3C7A5008D8B3307C50081E78D4763EE03
:101A2000C700AA876370E50A83C605008507850598
:101A3000A38FD7FEE3EAE7FE828093763500AA877C
:101A400091CA83C6050085078505A38FD7FE93F647
:101A50003700FDB79376C7FF138606FE63F0C7060F
:101A600083A3050083A2450083AF850003AFC500B3
:101A700083AE050103AE450103A3850183A8C5011B
:101A80009385450223A0770003A8C5FF23A2570032
:101A900023A4F70123A6E70123A8D70123AAC7019E
:101AA00023AC670023AE17019387470223AE07FFDD
:101AB00075B790419107910523AEC7FEE3EBD7FEC2
:101AC000E3E4E7F6828039713EDA2ED232D436D69C
:101AD0003AD842DC46DE9387C18022CC804326CAB6
:101AE00006CEAA8409C41C4C99E3228515230C4414
:101AF00054102686228536C6EF007016F2406244E6
:101B0000D24421618280011126CA4AC806CE22CC65
:101B10004EC652C4AA842E8901C51C4D91E3CD291D
:101B20009C4C804499E32685E52197270000938704
:101B3000A7A7631CF402C0408357C400A18BB1C7A0
:101B40001C48A1C7FD59294A1C4483450900FD17BB
:101B5000B1E91CC463DE07062286A94526857120EB
:101B6000FD576308F502294535A0972700009387A4
:101B7000A7A56314F4008044C1B79727000093879A
:101B8000A7A0E31BF4FAC04445BFA2852685312AED
:101B900055D97D55F2406244D2444249B249224A65
:101BA000056182801CC4050963D70700184C63CB0C
:101BB000E700638945011C401387170018C0238084
:101BC000B70059B7228626850D20E31F35F7D1B718
:101BD0001C401387170018C029472380E70061B70E
:101BE0009387C180AA85884339BF011122CC26CAB8
:101BF0004AC806CE4EC6AA842E89328401C51C4D21
:101C000091E33921972700009387079A6319F40617
:101C1000C0401C4C1CC48357C400A18BC9C31C48C2
:101C2000BDCF1C4808409379F90F1379F90F1D8D2A
:101C30005C486346F500A2852685652C2DE51C448D
:101C40000505FD171CC41C401387170018C023800E
:101C500037015C486389A7008357C400858B81CB1B
:101C6000A9476316F900A285268561240DEDF2408F
:101C700062444A85D2444249B2490561828097272D
:101C80000000938767946314F400804459B7972742
:101C900000009387678FE31EF4F6C0449DBFA285C2
:101CA000268521203DDD7D59D9B741119387C1801B
:101CB00026C2844322C44AC006C62A892E8489C407
:101CC0009C4C99E32685A926972700009387C78D0A
:101CD000631CF402C0400317C40093170701C183BB
:101CE00093F68700B5EE93F607019DEEA5472320F6
:101CF000F900136707042316E4007D55B24022441F
:101D00009244024941018280972700009387C78B44
:101D10006314F4008044C1B7972700009387C786F7
:101D2000E31BF4FAC04445BF918B8DC74C5889C959
:101D3000930744046384F5004A85352B232A040263
:101D40008357C4002322040093F7B7FD2316F40041
:101D50001C481CC08357C40093E787002316F40077
:101D60001C4881EF8357C4001307002093F707280E
:101D70006385E700A2854A8585218357C40013F750
:101D8000170005C75C4823240400B307F0401CCCAF
:101D90001C480145A5F78317C40013F7070839DF6E
:101DA00093E707042316F40089BF898B014791E369
:101DB000584818C4F1BF83D7C500011122CC26CAE8
:101DC00006CE4AC84EC613F78700AA842E8471EF48
:101DD000D841634DE000B841634AE0000145F2405C
:101DE0006244D2444249B2490561828058547DD749
:101DF00003A904009396370123A0040063DD0606BF
:101E000070488357C400918B99C75C401D8E5C5805
:101E100099C33C401D8E5C540C50814626858297A8
:101E2000FD570357C400631DF5009440F54763E870
:101E3000D706B70740208507B3D7D700858BA5C342
:101E40001C48232204001CC09317370163D80700E5
:101E5000FD576314F5009C4091E368C84C5823A0DB
:101E60002401ADDD930744046384F5002685212118
:101E7000232A0402A5B70C50014685462685029701
:101E8000FD572A86E31FF5F69C40A5DF754763855D
:101E9000E70059476394E70423A0240181B713673F
:101EA00007042316E4007D551DBF83A90501E387C0
:101EB00009F203A905008D8B23A0350133093941AF
:101EC000014791E3D84918C4E35A20F11C540C503F
:101ED000CA864E86268582976349A0008357C40030
:101EE00093E707042316F4007DBFAA993309A9409C
:101EF000E1BF9C49B9CF011122CC06CE2A8411C57D
:101F00001C4D81E72EC62922B24597170000938702
:101F1000A769639BF5004C408397C50095C7228550
:101F20006244F240056141BD971700009387C7697D
:101F30006394F5000C44CDB7971700009387C764EE
:101F4000E39CF5FC4C44C9BFF24062440145056185
:101F5000828001458280411122C406C62A8423164C
:101F6000B5002317C50023200500232205002324E4
:101F700005002322050623280500232A0500232C1B
:101F80000500214681451305C505EFE06F9B9717B6
:101F90000000938767B45CD0971700009387C7B69B
:101FA0001CD497170000938707BB5CD497170000D9
:101FB0009387C7BD00D01CD8B24022444101828023
:101FC00097050000938525F3A9A2411126C21306A7
:101FD00080069384F5FFB384C4024AC02E8922C4CC
:101FE00006C693854407252E2A8401CD23200500AB
:101FF00023222501310508C4138684068145EFE0BC
:102000002F942285B24022449244024941018280A9
:102010001C4DADE3411106C622C49707000093870B
:1020200067FA1CD5938701829C4323240504232649
:102030000504232805046314F50085471CCD2A8474
:102040001D2848C02285052808C422852D2048C4A3
:10205000484001469145013708440546A545E53D00
:1020600048440946C945C53D85471CCCB240224479
:1020700041018280828041119387018226C284437C
:102080004AC006C69C4C22C42A8999E32685493752
:10209000938484048044DC40FD1763D607009C4091
:1020A000B9CF8440C5BF0317C40039E7C17785079E
:1020B00023220406232004002322040023240400F6
:1020C0005CC423280400232A0400232C0400214696
:1020D00081451305C405EFE0AF86232A0402232CB3
:1020E000040223240404232604042285B24022444B
:1020F00092440249410182801304840671BF9145D4
:102100004A85E13588C051FDB1472320F9000144DB
:10211000E9BF797122D44AD052CC56CA5AC85EC699
:1021200006D626D24ECE2A8AAE8A130485040149E9
:10213000054BFD5B09ECB25022544A85925402597A
:10214000F249624AD24A424BB24B45618280044412
:1021500083294400FD1963D409000040E1BF83D7FF
:10216000C400637BFB008397E40063877701A68547
:102170005285829A3369A90093848406E1BF19715C
:10218000A6DAAE848395E500A2DC86DE328463DCC9
:10219000050083D7C40023A0060093F7070885E74E
:1021A000930700401DA0300836C6EF00B023B246AA
:1021B000E34105FE7247BD67F98F7977BA9793B708
:1021C00017009CC2F1BF930700041CC0F650665470
:1021D000D65401450961828083D7C500011122CC04
:1021E00006CE26CA4AC8898B2E8489CF93077404E9
:1021F0001CC01CC885475CC8F2406244D2444249B6
:102200000561828074003000AA84953FA2452A8926
:102210002685312201ED8317C40013F7072069FFDB
:10222000F19B93E727002316F400C9B79707000036
:10223000938747D99CD48357C40008C008C893E744
:1022400007082316F400A2475CC8B24791CF831554
:10225000E4002685EF00B01B01C98357C400F19B41
:1022600093E717002316F4008357C4003369F9007D
:102270002316240151B7DDC183A7C5FF411122C434
:1022800006C626C21384C5FF63D307003E94AA8402
:10229000EF00D01E938741859C4381EF23220400E9
:1022A00023AA81842244B2402685924441016F00D2
:1022B000101D637EF40014403307D4006396E700DA
:1022C0009843DC43369718C05CC0D9BFBA87D8435F
:1022D00019C3E37DE4FE94433386D700631F860071
:1022E0001040B29694C33386D700E31DC7FA10435B
:1022F0005843B29694C3D8C375B76375C400B14749
:102300009CC04DB71040B306C4006316D7001443F9
:102310005843B29614C058C0C0C369B78280011137
:1023200026CA93843500F19806CE22CC4AC84EC600
:10233000A104B14763F3F404B14463E2B4042A890D
:10234000EF00D0139387418598433A8439E093870F
:1023500081859C4391E781454A85892F23ACA184DF
:10236000A6854A85A127FD5963193507B147232062
:10237000F9004A85EF00B01029A0E3D004FCB14772
:102380001CC10145F2406244D2444249B249056150
:1023900082801C40858F63CF0702AD4663F6F6004E
:1023A0001CC03E9404C031A05C406313870223AA82
:1023B000F1844A85EF00B00C1305B4009307440084
:1023C00061993307F5405DDF3A94898F1CC05DBF8A
:1023D0005CC3C5B72287404095BF13043500719890
:1023E000E30285FCB305A4404A85C925E31C35FBFF
:1023F000B5BF1C46FD171CC663DA0700184E63C53F
:10240000E700A9476394F5006FF02FFE1C422E856C
:102410001387170018C22380B7008280011122CCD5
:1024200026CA4AC84EC652C406CE2A89AE8932840C
:10243000B304D6007D5A63149400014509A883456E
:1024400004004E864A8575370504E31645FFF240C1
:102450006244D2444249B249224A056182803571C0
:1024600022CD26CB4AC94EC706CF52C556C35AC144
:10247000DEDEE2DCE6DAAA89AE843289368409C57A
:102480001C4D99E3EFF0DFB8971700009387C71151
:10249000639BF40C83A4490083D7C400A18BF5C7C8
:1024A0009C48E5C793070002A304F10293070003C9
:1024B00002D22305F10222C6930B5002971A0000A4
:1024C000938A8A12054C294B4A848347040099C396
:1024D0006390770FB30C2441638D0C00E6864A8627
:1024E000A6854E85253FFD576306F51E9256E69656
:1024F00036D283470400638F071CFD57130914006D
:1025000002C802CE3ECA02CCA309010482D483458C
:10251000090015465685B12713041900C24759E929
:1025200013F7070109C713070002A309E10413F712
:10253000870009C71307B002A309E1048346090015
:102540001307A0026380E608F2474A8481462546C5
:102550000347040093051400130707FD6379E60A97
:10256000B5CA3ECE85A8971700009387E705639507
:10257000F40083A489000DB7971700009387C70064
:10258000E39CF4F083A4C90001BFA6854E85EFF05B
:10259000CFF109D97D55FA406A44DA444A49BA492B
:1025A0002A4A9A4A0A4BF65B665CD65C0D618280C9
:1025B000050421BF330555413315AC00C98F3EC812
:1025C0002289B1B7324793064700184336C663499C
:1025D00007023ACE034704009307E002631FF704A3
:1025E000034714009307A002631BF702B2470904D4
:1025F000138747009C433AC663C107023ECA35A809
:102600003307E04093E727003ACE3EC8E1B7B387EF
:10261000670385462E84BA9725BFFD57C5B70504C5
:1026200002CA8146814725460347040093051400EA
:10263000130707FD6376E606F1F2834504000D46B5
:10264000171500001305C5FA292D11CD97170000A5
:10265000938707FA1D8D93070004B397A70042459F
:1026600005045D8D2AC8834504001946171500002E
:10267000130545F8130914002304B102DD233DC1FD
:1026800097E7FFFF9387079895E74247B24713778D
:10269000071009CF91073EC69257D2973ED22DB56B
:1026A000B387670385462E84BA97BDBF9D07E19B1C
:1026B000A107D5B7780097060000938666D62686D0
:1026C0000C084E8597000000E7000000FD572A8A9D
:1026D000E314F5FC83D7C40093F70704E39C07EAEF
:1026E000125555BD780097060000938666D326865E
:1026F0000C084E85012AD9BF797156CA9C49BA8AFD
:10270000984522D426D24ECE52CC06D64AD05AC8AC
:102710005EC6AA892E84B284368A63D3E700BA875C
:102720009CC00347340419C385079CC01C4093F721
:10273000070281C79C4089079CC0032904001379C4
:102740006900631A0900130B9401FD5B5C44984017
:10275000998F634CF9041C408346340493F70702B5
:10276000B336D000A5EB13063404D2854E85829A89
:10277000FD576303F5041C4011469840998B54445F
:1027800081446397C700B384E64063D30400814467
:102790001C4418486354F700998FBE94014969049A
:1027A0007D5B63982405014509A885465A86D28534
:1027B0004E85829A631E75017D55B2502254925403
:1027C0000259F249624AD24A424BB24B4561828079
:1027D0000509ADBF3307D40013060003A301C704E6
:1027E0000347540493871600A2978906A381E70440
:1027F0009DBF85462286D2854E85829AE30E65FB73
:10280000050945B7797122D426D24AD04ECE06D6D4
:1028100052CC56CA5AC8B68983C68501930790061A
:102820003289AA842E8413863504638DF60263E20E
:10283000D706930780056387F61863EDD70063809A
:10284000062293073004638EF60A930A24042301B8
:10285000D404C9A0930730066385F60A930740069F
:10286000E395F6FE1C40084393F6070893054500E0
:10287000C5C61C410CC363D807001307D002B307B9
:10288000F040A301E40497160000938626D7294759
:102890006DA8930700076383F61663E5D7029307D5
:1028A000E006638AF6189307F006E390F6FA0C4008
:1028B0001C4313F80508138547006307080608C37F
:1028C0009C438DA893075007E383F6FE9307800788
:1028D000638AF61293073007E399F6F61C43D0415A
:1028E00081459386470014C383AA07005685952E19
:1028F00001C53305554148C05C401CC8A301040410
:1029000071A81C43930A2404938647009C4314C374
:102910002301F4048547D5B793F607041C410CC383
:10292000B9DAC207C18781BF93F5050408C3C9D9C5
:1029300083D707001307F0066387E60E971600009B
:102940009386C6CB2947A30104044C400CC463C53D
:10295000050008406D9908C099E3B28A91CDB28A0A
:10296000B3F5E702FD1AB69583C505002380BA00CA
:10297000B3D5E70263FFE70AA147631EF7001C40D7
:10298000858B91CB58401C4863C7E7009307000331
:10299000A38FFAFEFD1A3306564110C84E87CA8629
:1029A0007000A2852685893B7D5A631E450B7D55A7
:1029B000B250225492540259F249624AD24A424BCE
:1029C00045618280A382D50497160000938606C3D2
:1029D0000C40084313F805081C411105630D08025B
:1029E00008C313F7150001C793E505020CC0414762
:1029F000B9FB0C4093F5F5FD0CC0B1B79C4193E7D2
:102A000007029CC193078007A302F40497160000F5
:102A1000938606C075BF13F8050408C3E30308FCDA
:102A2000C207C1837DBF97160000938626BD21474C
:102A300019BFAE8735B794411C43CC4913F806083B
:102A4000138547006306080008C39C438CC301A894
:102A500008C393F606049C43F5DA2390B7002328B5
:102A60000400B28A25BF14485686CA8526858299F5
:102A7000E30F45F31C40898B8DE7B2474844E35987
:102A8000F5F23E8535B785465686CA8526858299F4
:102A9000E30F65F1050A5C443247998FE345FAFE7E
:102AA000E9BF014A930A94017D5BF5B7411122C445
:102AB0002A842E8523A401D206C63D24FD57631720
:102AC000F500938781D29C4391C31CC0B24022443D
:102AD00041018280411122C42E848395E50006C6FF
:102AE0004522634905007C48AA977CC8B24022442D
:102AF000410182808357C4007D777D17F98F2316AB
:102B0000F400EDB783D7C500011122CC26CA4AC80C
:102B10004EC606CE93F70710AA842E843289B68952
:102B200091C78395E5008946014631228357C40049
:102B30007D777D17F98F2316F4008315E400624436
:102B4000F240CE864A86B24942492685D244056182
:102B50003DA8411122C42E848395E50006C6E128D4
:102B6000FD570357C400631BF500FD77FD17F98F70
:102B70002316F400B2402244410182808567D98F38
:102B80002316F40068C8FDB78395E50005A8411138
:102B900022C42A842E85B285368623A401D206C695
:102BA000EFE05FE2FD576317F500938781D29C4306
:102BB00091C31CC0B240224441018280411122C411
:102BC0002A842E8523A401D206C6CD20FD57631783
:102BD000F500938781D29C4391C31CC0B24022442C
:102BE00041018280411122C42A842E85B28523A40A
:102BF00001D206C6D120FD576317F500938781D215
:102C00009C4391C31CC0B2402244410182804111C7
:102C100022C42A842E8523A401D206C66520FD572E
:102C20006317F500938781D29C4391C31CC0B240C7
:102C3000224441018280411122C42A842E85B2851A
:102C4000368623A401D206C66120FD576317F5001E
:102C5000938781D29C4391C31CC0B240224441015E
:102C6000828093F5F50F2A966314C5000145828092
:102C700083470500E38DB7FE0505FDB7828082809E
:102C8000411122C42A842E85B285368623A401D21E
:102C900006C6A920FD576317F500938781D29C4390
:102CA00091C31CC0B2402244410182809307800539
:102CB00023A4F1D27D5582809307800523A4F1D20D
:102CC0007D5582809307800523A4F1D2014582803F
:102CD0009307800523A4F1D27D5582809307800558
:102CE00023A4F1D27D5582809387C1859C4391C7EF
:102CF0003E9523AEA1843E8582809387C1D23E95C6
:102D000023AEA1843E858280D20C00003C0B0000E3
:102D1000980A0000080C0000980A0000120B00003E
:102D2000280A0000980A00001C0B0000320B00006B
:102D3000CC0C0000636F70792062696E617279203B
:102D4000666F726D61742065786563757461626C1D
:102D500065282A2E62696E2920746F207468697351
:102D6000206469736B000000777269746520737565
:102D7000636365737366756C202121210000000078
:102D80007772697465206661696C202121210000D9
:102D9000008002021F000000595359582D48465028
:102DA000464C4153482D50524F4752414D4D45528C
:102DB000312E3030EB3C904D53444F53352E300084
:102DC000020102000200020080F87F003F00FF00C5
:102DD0000000000000000000800029ECD2E32C5924
:102DE0005359582D4846504C4E4B4641543136208D
:102DF000202033C98ED1BCF07B8ED9B800208EC084
:102E0000FCBD007C384E247D248BC199E83C0172C6
:102E10001C83EB3A66A11C7C26663B07268A57FC7E
:102E2000750680CA0288560280C31073EB33C98AC4
:102E3000461098F7661603461C13561E03460E13DB
:102E4000D18B7611608946FC8956FEB82000F7E6E2
:102E50008B5E0B03C348F7F30146FC114EFE61BFC6
:102E60000000E8E600723926382D741760B10BBEF9
:102E7000A17DF3A66174324E740983C7203BFB72B7
:102E8000E6EBDCA0FB7DB47D8BF0AC9840740C4885
:102E90007413B40EBB0700CD10EBEFA0FD7DEBE685
:102EA000A0FC7DEBE1CD16CD19268B551A52B00151
:102EB000BB0000E83B0072E85B8A5624BE0B7C8BAB
:102EC000FCC746F03D7DC746F4297D8CD9894EF27A
:102ED000894EF6C606967DCBEA030000200FB6C8E1
:102EE000668B46F86603461C668BD066C1EA10EB1B
:102EF0005E0FB6C84A4A8A460D32E4F7E20346FC42
:102F00001356FEEB4A525006536A016A10918B46E3
:102F100018969233D2F7F691F7F64287CAF7761AE7
:102F20008AF28AE8C0CC020ACCB80102807E020E86
:102F30007504B4428BF48A5624CD136161720B4040
:102F4000750142035E0B497506F8C341BB00006082
:102F5000666A00EBB0424F4F544D4752202020206C
:102F60000D0A52656D6F7665206469736B73206F0F
:102F700072206F74686572206D656469612EFF0D43
:102F80000A4469736B206572726F72FF0D0A50728A
:102F900065737320616E79206B657920746F207280
:102FA0006573746172740D0A00000000000000ACCB
:102FB000CBD855AAF8FFFFFF0F000000000000006B
:102FC0000000000000000000000000000000000001
:102FD00000000000000000000000000000000000F1
:102FE00000000000000000000000000000000000E1
:102FF00000000000000000000000000000000000D1
:1030000000000000000000000000000000000000C0
:1030100000000000000000000000000000000000B0
:1030200000000000000000000000000000000000A0
:103030000000000000000000000000000000000090
:103040000000000000000000000000000000000080
:103050000000000000000000000000000000000070
:103060000000000000000000000000000000000060
:103070000000000000000000000000000000000050
:103080000000000000000000000000000000000040
:103090000000000000000000000000000000000030
:1030A0000000000000000000000000000000000020
:1030B0000000000000000000000000000000000010
:1030C0000000000000000000000000000000000000
:1030D00000000000000000000000000000000000F0
:1030E00000000000000000000000000000000000E0
:1030F00000000000000000000000000000000000D0
:1031000000000000000000000000000000000000BF
:1031100000000000000000000000000000000000AF
:10312000000000000000000000000000000000009F
:10313000000000000000000000000000000000008F
:10314000000000000000000000000000000000007F
:10315000000000000000000000000000000000006F
:10316000000000000000000000000000000000005F
:10317000000000000000000000000000000000004F
:10318000000000000000000000000000000000003F
:10319000000000000000000000000000000000002F
:1031A000000000000000000000000000000000001F
:1031B0000000000009022000010100A03209040003
:1031C00000020806500007050102400000070581C3
:1031D000024000001201100100000040861A225730
:1031E00000010102030100000A035F6CCF82816CC1
:1031F000526000001A0359005300590058002D0076
:103200004800460050004C0049004E004B000000B2
:10321000140332003000320033002D0032002D0044
:1032200032003400595359582D4846504C6E6B08A3
:10323000000000000000000000000000000000008E
:10324000000000005354415445202020545854019C
:1032500000001A7E133914390000617E133903000F
:10326000310000005B494E51554952595D00000044
:103270005B57524954455D205546495F4C656E6722
:1032800074682E6D446174614C656E6774683A2091
:103290002575205365634E756D3A2025750A00002B
:1032A0005B524541445D205546495F4C656E6774ED
:1032B000682E6D446174614C656E6774683A2025B0
:1032C00075205365634E756D3A2025750A00000020
:1032D0005B5245512053454E53455D005B5245417D
:1032E000445F43415041434954595D005B4D4F4455
:1032F000452053454E53455D00000000000000008E
:1033000000000000000000000000000000000000BD
:1033100000000000000000000000000000000000AD
:10332000000000000000000000000000000000009D
:10333000000000000000000000000000000000008D
:10334000000000000000000000000000000000007D
:10335000000000000000000000000000000000006D
:10336000000000000000000000000000000000005D
:10337000000000000000000000000000000000004D
:10338000000000000000000000000000000000003D
:10339000000000000000000000000000000000002D
:1033A000000000000000000000000000000000001D
:1033B000000000000000000000000000000000000D
:1033C00000000000000000000000000000000000FD
:1033D00000000000000000000000000000000000ED
:1033E00000000000000000000000000000000000DD
:1033F00000000000000000000000000000000000CD
:1034000000000000000000000000000000000000BC
:1034100000000000000000000000000000000000AC
:10342000000000000000000000000000000000009C
:10343000000000000000000000000000000000008C
:10344000000000000000000000000000000000007C
:10345000000000000000000000000000000000006C
:10346000000000000000000000000000000000005C
:10347000000000000000000000000000000000004C
:10348000000000000000000000000000000000003C
:10349000000000000000000000000000000000002C
:1034A000000000000000000000000000000000001C
:1034B000000000000000000000000000000000000C
:1034C00000000000000000000000000000000000FC
:1034D00000000000000000000000000000000000EC
:1034E00000000000000000000000000000000000DC
:1034F0000000000000000000000000005B65726139
:1035000073655D646174615F7472616E5F636E7434
:103510003A20256420666C6173685F616464723A66
:1035200020256420657261736520616464723A20AD
:1035300025640A00646174615F7472616E5F636E1A
:10354000743A2025640A00000B0000080000800087
:1035500000000200466C6173685F49443A202530E0
:1035600038780A0045787465726E616C20466C612B
:103570007368206E6F7420636F6E6E65637465642C
:103580000D0000000000000000000000000000002E
:10359000000000000000000000000000000000002B
:1035A000000000000000000000000000000000001B
:1035B000000000000000000000000000000000000B
:1035C00000000000000000000000000000000000FB
:1035D00000000000000000000000000000000000EB
:1035E00000000000232D302B20000000686C4C00F0
:1035F000656667454647000030313233343536372B
:1036000038394142434445460000000030313233EE
:10361000343536373839616263646566000000000E
:103620000000000001020304010203040607080968
:1036300000000000A4350000C435000084350000FF
:10364000000000000000000000000000000000007A
:10365000000000000000000000000000000000006A
:10366000000000000000000000000000000000005A
:10367000000000000000000000000000000000004A
:10368000000000000000000000000000000000003A
:103690000100000000A24A040204060810000020F5
:1036A00000007FFF00000200000000000403090486
:0836B0001000002000000000E2
:00000001FF
